{
  "contractName": "raffleLottery",
  "abi": [
    {
      "inputs": [],
      "stateMutability": "nonpayable",
      "type": "constructor"
    },
    {
      "anonymous": false,
      "inputs": [
        {
          "indexed": true,
          "internalType": "address",
          "name": "previousOwner",
          "type": "address"
        },
        {
          "indexed": true,
          "internalType": "address",
          "name": "newOwner",
          "type": "address"
        }
      ],
      "name": "OwnershipTransferred",
      "type": "event"
    },
    {
      "anonymous": false,
      "inputs": [
        {
          "indexed": false,
          "internalType": "uint256",
          "name": "discrepency",
          "type": "uint256"
        }
      ],
      "name": "discrepencyTest",
      "type": "event"
    },
    {
      "anonymous": false,
      "inputs": [
        {
          "indexed": false,
          "internalType": "bool",
          "name": "isLotteryLive",
          "type": "bool"
        }
      ],
      "name": "lotteryActive",
      "type": "event"
    },
    {
      "anonymous": false,
      "inputs": [
        {
          "indexed": false,
          "internalType": "address",
          "name": "playerAddress",
          "type": "address"
        },
        {
          "indexed": false,
          "internalType": "uint256",
          "name": "numEntries",
          "type": "uint256"
        },
        {
          "indexed": false,
          "internalType": "uint256[]",
          "name": "raffleNumbers",
          "type": "uint256[]"
        }
      ],
      "name": "playerEntered",
      "type": "event"
    },
    {
      "anonymous": false,
      "inputs": [
        {
          "indexed": false,
          "internalType": "uint256",
          "name": "randomNum",
          "type": "uint256"
        }
      ],
      "name": "randomNumGen",
      "type": "event"
    },
    {
      "anonymous": false,
      "inputs": [
        {
          "indexed": false,
          "internalType": "uint256",
          "name": "entryCount",
          "type": "uint256"
        }
      ],
      "name": "runningEntryCount",
      "type": "event"
    },
    {
      "anonymous": false,
      "inputs": [
        {
          "indexed": false,
          "internalType": "uint256",
          "name": "jackpotTotal",
          "type": "uint256"
        }
      ],
      "name": "runningJackpotTotal",
      "type": "event"
    },
    {
      "anonymous": false,
      "inputs": [
        {
          "indexed": false,
          "internalType": "uint256",
          "name": "entryNumber",
          "type": "uint256"
        },
        {
          "indexed": false,
          "internalType": "address",
          "name": "playerAddress",
          "type": "address"
        },
        {
          "indexed": false,
          "internalType": "uint256",
          "name": "jackpotTotal",
          "type": "uint256"
        }
      ],
      "name": "winnerDeclared",
      "type": "event"
    },
    {
      "stateMutability": "payable",
      "type": "fallback"
    },
    {
      "inputs": [],
      "name": "entryCount",
      "outputs": [
        {
          "internalType": "uint256",
          "name": "",
          "type": "uint256"
        }
      ],
      "stateMutability": "view",
      "type": "function"
    },
    {
      "inputs": [],
      "name": "hasLotteryEnded",
      "outputs": [
        {
          "internalType": "bool",
          "name": "",
          "type": "bool"
        }
      ],
      "stateMutability": "view",
      "type": "function"
    },
    {
      "inputs": [],
      "name": "isLotteryLive",
      "outputs": [
        {
          "internalType": "bool",
          "name": "",
          "type": "bool"
        }
      ],
      "stateMutability": "view",
      "type": "function"
    },
    {
      "inputs": [],
      "name": "jackpotTotal",
      "outputs": [
        {
          "internalType": "uint256",
          "name": "",
          "type": "uint256"
        }
      ],
      "stateMutability": "view",
      "type": "function"
    },
    {
      "inputs": [],
      "name": "lotteryName",
      "outputs": [
        {
          "internalType": "string",
          "name": "",
          "type": "string"
        }
      ],
      "stateMutability": "view",
      "type": "function"
    },
    {
      "inputs": [],
      "name": "owner",
      "outputs": [
        {
          "internalType": "address",
          "name": "",
          "type": "address"
        }
      ],
      "stateMutability": "view",
      "type": "function"
    },
    {
      "inputs": [],
      "name": "renounceOwnership",
      "outputs": [],
      "stateMutability": "nonpayable",
      "type": "function"
    },
    {
      "inputs": [],
      "name": "ticketPrice",
      "outputs": [
        {
          "internalType": "uint256",
          "name": "",
          "type": "uint256"
        }
      ],
      "stateMutability": "view",
      "type": "function"
    },
    {
      "inputs": [
        {
          "internalType": "address",
          "name": "newOwner",
          "type": "address"
        }
      ],
      "name": "transferOwnership",
      "outputs": [],
      "stateMutability": "nonpayable",
      "type": "function"
    },
    {
      "inputs": [],
      "name": "winnerAddress",
      "outputs": [
        {
          "internalType": "address",
          "name": "",
          "type": "address"
        }
      ],
      "stateMutability": "view",
      "type": "function"
    },
    {
      "inputs": [],
      "name": "winnerEntryNumber",
      "outputs": [
        {
          "internalType": "uint256",
          "name": "",
          "type": "uint256"
        }
      ],
      "stateMutability": "view",
      "type": "function"
    },
    {
      "inputs": [],
      "name": "winnerPrize",
      "outputs": [
        {
          "internalType": "uint256",
          "name": "",
          "type": "uint256"
        }
      ],
      "stateMutability": "view",
      "type": "function"
    },
    {
      "inputs": [
        {
          "internalType": "uint256",
          "name": "numEntries",
          "type": "uint256"
        }
      ],
      "name": "enterLottery",
      "outputs": [],
      "stateMutability": "payable",
      "type": "function"
    },
    {
      "inputs": [
        {
          "internalType": "uint256",
          "name": "randNonce",
          "type": "uint256"
        }
      ],
      "name": "declareWinner",
      "outputs": [],
      "stateMutability": "nonpayable",
      "type": "function"
    },
    {
      "inputs": [],
      "name": "selfDestruct",
      "outputs": [],
      "stateMutability": "nonpayable",
      "type": "function"
    },
    {
      "inputs": [
        {
          "internalType": "uint256",
          "name": "randNonce",
          "type": "uint256"
        },
        {
          "internalType": "uint256",
          "name": "entryCountTest",
          "type": "uint256"
        }
      ],
      "name": "generateRandomNumberTest",
      "outputs": [],
      "stateMutability": "nonpayable",
      "type": "function"
    }
  ],
  "bytecode": "0x60806040523480156200001157600080fd5b506200003262000026620001b460201b60201c565b620001bc60201b60201c565b6040518060400160405280600e81526020017f4c6175676820416c6f7474657279000000000000000000000000000000000000815250600190805190602001906200007f92919062000280565b50670de0b6b3a764000060028190555060016003819055506064606347620000a89190620003c4565b620000b491906200038c565b6004819055506001600660006101000a81548160ff0219169083151502179055506000600660016101000a81548160ff0219169083151502179055507f27b66cd6ebd76751ebae5c8b3ef7bf0ab70b532a3d53a9181b32b446e759a32e600660009054906101000a900460ff1660405162000130919062000352565b60405180910390a17f7e3a4f5813b3c3e3b5104bcdb6a518f0d6fc57c1347ceb9b7ca4010921d64e246003546040516200016b91906200036f565b60405180910390a17fc69d6520c09756236a03fc85859523e52933555c881f0b37179a2ff6da0367f0600454604051620001a691906200036f565b60405180910390a1620004fe565b600033905090565b60008060009054906101000a900473ffffffffffffffffffffffffffffffffffffffff169050816000806101000a81548173ffffffffffffffffffffffffffffffffffffffff021916908373ffffffffffffffffffffffffffffffffffffffff1602179055508173ffffffffffffffffffffffffffffffffffffffff168173ffffffffffffffffffffffffffffffffffffffff167f8be0079c531659141344cd1fd0a4f28419497f9722a3daafe3b4186f6b6457e060405160405180910390a35050565b8280546200028e906200043b565b90600052602060002090601f016020900481019282620002b25760008555620002fe565b82601f10620002cd57805160ff1916838001178555620002fe565b82800160010185558215620002fe579182015b82811115620002fd578251825591602001919060010190620002e0565b5b5090506200030d919062000311565b5090565b5b808211156200032c57600081600090555060010162000312565b5090565b6200033b8162000425565b82525050565b6200034c8162000431565b82525050565b600060208201905062000369600083018462000330565b92915050565b600060208201905062000386600083018462000341565b92915050565b6000620003998262000431565b9150620003a68362000431565b925082620003b957620003b8620004a0565b5b828204905092915050565b6000620003d18262000431565b9150620003de8362000431565b9250817fffffffffffffffffffffffffffffffffffffffffffffffffffffffffffffffff04831182151516156200041a576200041962000471565b5b828202905092915050565b60008115159050919050565b6000819050919050565b600060028204905060018216806200045457607f821691505b602082108114156200046b576200046a620004cf565b5b50919050565b7f4e487b7100000000000000000000000000000000000000000000000000000000600052601160045260246000fd5b7f4e487b7100000000000000000000000000000000000000000000000000000000600052601260045260246000fd5b7f4e487b7100000000000000000000000000000000000000000000000000000000600052602260045260246000fd5b6116aa806200050e6000396000f3fe6080604052600436106100f65760003560e01c80633fd430981161008a5780639cb8a26a116100595780639cb8a26a146102d9578063e42319dc146102f0578063ed7a4e0b1461031b578063f2fde38b14610346576100f7565b80633fd43098146102525780636d30eca71461026e578063715018a6146102975780638da5cb5b146102ae576100f7565b80631da709f4116100c65780631da709f4146101a65780632017aa2f146101d1578063214701c5146101fc57806323d1414914610227576100f7565b8062c2943c146100fc5780630cbb0f831461012557806310c85fe5146101505780631209b1f61461017b576100f7565b5b600080fd5b34801561010857600080fd5b50610123600480360381019061011e9190610f08565b61036f565b005b34801561013157600080fd5b5061013a610685565b604051610147919061127d565b60405180910390f35b34801561015c57600080fd5b5061016561068b565b6040516101729190611200565b60405180910390f35b34801561018757600080fd5b5061019061069e565b60405161019d919061127d565b60405180910390f35b3480156101b257600080fd5b506101bb6106a4565b6040516101c8919061127d565b60405180910390f35b3480156101dd57600080fd5b506101e66106aa565b6040516101f3919061127d565b60405180910390f35b34801561020857600080fd5b506102116106b0565b60405161021e9190611200565b60405180910390f35b34801561023357600080fd5b5061023c6106c3565b604051610249919061121b565b60405180910390f35b61026c60048036038101906102679190610f08565b610751565b005b34801561027a57600080fd5b5061029560048036038101906102909190610f31565b610a09565b005b3480156102a357600080fd5b506102ac610b0c565b005b3480156102ba57600080fd5b506102c3610b94565b6040516102d091906111a7565b60405180910390f35b3480156102e557600080fd5b506102ee610bbd565b005b3480156102fc57600080fd5b50610305610c73565b604051610312919061127d565b60405180910390f35b34801561032757600080fd5b50610330610c79565b60405161033d91906111a7565b60405180910390f35b34801561035257600080fd5b5061036d60048036038101906103689190610edf565b610c9f565b005b610377610d97565b73ffffffffffffffffffffffffffffffffffffffff16610395610b94565b73ffffffffffffffffffffffffffffffffffffffff16146103eb576040517f08c379a00000000000000000000000000000000000000000000000000000000081526004016103e29061125d565b60405180910390fd5b6000600660006101000a81548160ff0219169083151502179055506001600660016101000a81548160ff0219169083151502179055507f27b66cd6ebd76751ebae5c8b3ef7bf0ab70b532a3d53a9181b32b446e759a32e600660009054906101000a900460ff1660405161045f9190611200565b60405180910390a17f7e3a4f5813b3c3e3b5104bcdb6a518f0d6fc57c1347ceb9b7ca4010921d64e24600354604051610498919061127d565b60405180910390a17fc69d6520c09756236a03fc85859523e52933555c881f0b37179a2ff6da0367f06004546040516104d1919061127d565b60405180910390a160006104e482610d9f565b90506005600082815260200190815260200160002060000160009054906101000a900473ffffffffffffffffffffffffffffffffffffffff1673ffffffffffffffffffffffffffffffffffffffff1660045460405161054290611155565b60006040518083038185875af1925050503d806000811461057f576040519150601f19603f3d011682016040523d82523d6000602084013e610584565b606091505b5050506005600082815260200190815260200160002060000160009054906101000a900473ffffffffffffffffffffffffffffffffffffffff16600660026101000a81548173ffffffffffffffffffffffffffffffffffffffff021916908373ffffffffffffffffffffffffffffffffffffffff160217905550806007819055506004546008819055507fa7df64737446f301c9dbc88f3f02e06b341e5aa0c1c70fb7e887cabdad1c786a816005600084815260200190815260200160002060000160009054906101000a900473ffffffffffffffffffffffffffffffffffffffff1660045460405161067993929190611298565b60405180910390a15050565b60035481565b600660009054906101000a900460ff1681565b60025481565b60045481565b60085481565b600660019054906101000a900460ff1681565b600180546106d0906114c1565b80601f01602080910402602001604051908101604052809291908181526020018280546106fc906114c1565b80156107495780601f1061071e57610100808354040283529160200191610749565b820191906000526020600020905b81548152906001019060200180831161072c57829003601f168201915b505050505081565b610759610b94565b73ffffffffffffffffffffffffffffffffffffffff163373ffffffffffffffffffffffffffffffffffffffff16141561079157600080fd5b6000811161079e57600080fd5b600254816107ac91906113b6565b34146107b757600080fd5b600660009054906101000a900460ff166107d057600080fd5b60008167ffffffffffffffff811115610812577f4e487b7100000000000000000000000000000000000000000000000000000000600052604160045260246000fd5b6040519080825280602002602001820160405280156108405781602001602082028036833780820191505090505b50905060008060035490505b8360035461085a919061132f565b81101561091e578083838151811061089b577f4e487b7100000000000000000000000000000000000000000000000000000000600052603260045260246000fd5b6020026020010181815250506001826108b4919061132f565b9150336005600083815260200190815260200160002060000160006101000a81548173ffffffffffffffffffffffffffffffffffffffff021916908373ffffffffffffffffffffffffffffffffffffffff1602179055508080610916906114f3565b91505061084c565b508260036000828254610931919061132f565b92505081905550606460634761094791906113b6565b6109519190611385565b6004819055507f475dac909e62784bd7764746ac48a90c493477ac04a153bb5a01feacbc6f1ffa33848460405161098a939291906111c2565b60405180910390a17f7e3a4f5813b3c3e3b5104bcdb6a518f0d6fc57c1347ceb9b7ca4010921d64e246003546040516109c3919061127d565b60405180910390a17fc69d6520c09756236a03fc85859523e52933555c881f0b37179a2ff6da0367f06004546040516109fc919061127d565b60405180910390a1505050565b610a11610d97565b73ffffffffffffffffffffffffffffffffffffffff16610a2f610b94565b73ffffffffffffffffffffffffffffffffffffffff1614610a85576040517f08c379a0000000000000000000000000000000000000000000000000000000008152600401610a7c9061125d565b60405180910390fd5b8180610a90906114f3565b925050600081423385604051602001610aab9392919061116a565b6040516020818303038152906040528051906020012060001c610ace919061156a565b90507f390fd0d5a5bb3baee404551d61d45047869ade7b6a6cf71906e740e18d958d2081604051610aff919061127d565b60405180910390a1505050565b610b14610d97565b73ffffffffffffffffffffffffffffffffffffffff16610b32610b94565b73ffffffffffffffffffffffffffffffffffffffff1614610b88576040517f08c379a0000000000000000000000000000000000000000000000000000000008152600401610b7f9061125d565b60405180910390fd5b610b926000610df1565b565b60008060009054906101000a900473ffffffffffffffffffffffffffffffffffffffff16905090565b610bc5610d97565b73ffffffffffffffffffffffffffffffffffffffff16610be3610b94565b73ffffffffffffffffffffffffffffffffffffffff1614610c39576040517f08c379a0000000000000000000000000000000000000000000000000000000008152600401610c309061125d565b60405180910390fd5b600660009054906101000a900460ff1615610c5357600080fd5b610c5b610b94565b73ffffffffffffffffffffffffffffffffffffffff16ff5b60075481565b600660029054906101000a900473ffffffffffffffffffffffffffffffffffffffff1681565b610ca7610d97565b73ffffffffffffffffffffffffffffffffffffffff16610cc5610b94565b73ffffffffffffffffffffffffffffffffffffffff1614610d1b576040517f08c379a0000000000000000000000000000000000000000000000000000000008152600401610d129061125d565b60405180910390fd5b600073ffffffffffffffffffffffffffffffffffffffff168173ffffffffffffffffffffffffffffffffffffffff161415610d8b576040517f08c379a0000000000000000000000000000000000000000000000000000000008152600401610d829061123d565b60405180910390fd5b610d9481610df1565b50565b600033905090565b60008180610dac906114f3565b925050600354423384604051602001610dc79392919061116a565b6040516020818303038152906040528051906020012060001c610dea919061156a565b9050919050565b60008060009054906101000a900473ffffffffffffffffffffffffffffffffffffffff169050816000806101000a81548173ffffffffffffffffffffffffffffffffffffffff021916908373ffffffffffffffffffffffffffffffffffffffff1602179055508173ffffffffffffffffffffffffffffffffffffffff168173ffffffffffffffffffffffffffffffffffffffff167f8be0079c531659141344cd1fd0a4f28419497f9722a3daafe3b4186f6b6457e060405160405180910390a35050565b600081359050610ec481611646565b92915050565b600081359050610ed98161165d565b92915050565b600060208284031215610ef157600080fd5b6000610eff84828501610eb5565b91505092915050565b600060208284031215610f1a57600080fd5b6000610f2884828501610eca565b91505092915050565b60008060408385031215610f4457600080fd5b6000610f5285828601610eca565b9250506020610f6385828601610eca565b9150509250929050565b6000610f798383611120565b60208301905092915050565b610f8e81611458565b82525050565b610f9d81611410565b82525050565b610fb4610faf82611410565b61153c565b82525050565b6000610fc5826112df565b610fcf8185611302565b9350610fda836112cf565b8060005b8381101561100b578151610ff28882610f6d565b9750610ffd836112f5565b925050600181019050610fde565b5085935050505092915050565b61102181611422565b82525050565b6000611032826112ea565b61103c818561131e565b935061104c81856020860161148e565b61105581611628565b840191505092915050565b600061106d60268361131e565b91507f4f776e61626c653a206e6577206f776e657220697320746865207a65726f206160008301527f64647265737300000000000000000000000000000000000000000000000000006020830152604082019050919050565b60006110d360208361131e565b91507f4f776e61626c653a2063616c6c6572206973206e6f7420746865206f776e65726000830152602082019050919050565b6000611113600083611313565b9150600082019050919050565b6111298161144e565b82525050565b6111388161144e565b82525050565b61114f61114a8261144e565b611560565b82525050565b600061116082611106565b9150819050919050565b6000611176828661113e565b6020820191506111868285610fa3565b601482019150611196828461113e565b602082019150819050949350505050565b60006020820190506111bc6000830184610f94565b92915050565b60006060820190506111d76000830186610f94565b6111e4602083018561112f565b81810360408301526111f68184610fba565b9050949350505050565b60006020820190506112156000830184611018565b92915050565b600060208201905081810360008301526112358184611027565b905092915050565b6000602082019050818103600083015261125681611060565b9050919050565b60006020820190508181036000830152611276816110c6565b9050919050565b6000602082019050611292600083018461112f565b92915050565b60006060820190506112ad600083018661112f565b6112ba6020830185610f85565b6112c7604083018461112f565b949350505050565b6000819050602082019050919050565b600081519050919050565b600081519050919050565b6000602082019050919050565b600082825260208201905092915050565b600081905092915050565b600082825260208201905092915050565b600061133a8261144e565b91506113458361144e565b9250827fffffffffffffffffffffffffffffffffffffffffffffffffffffffffffffffff0382111561137a5761137961159b565b5b828201905092915050565b60006113908261144e565b915061139b8361144e565b9250826113ab576113aa6115ca565b5b828204905092915050565b60006113c18261144e565b91506113cc8361144e565b9250817fffffffffffffffffffffffffffffffffffffffffffffffffffffffffffffffff04831182151516156114055761140461159b565b5b828202905092915050565b600061141b8261142e565b9050919050565b60008115159050919050565b600073ffffffffffffffffffffffffffffffffffffffff82169050919050565b6000819050919050565b60006114638261146a565b9050919050565b60006114758261147c565b9050919050565b60006114878261142e565b9050919050565b60005b838110156114ac578082015181840152602081019050611491565b838111156114bb576000848401525b50505050565b600060028204905060018216806114d957607f821691505b602082108114156114ed576114ec6115f9565b5b50919050565b60006114fe8261144e565b91507fffffffffffffffffffffffffffffffffffffffffffffffffffffffffffffffff8214156115315761153061159b565b5b600182019050919050565b60006115478261154e565b9050919050565b600061155982611639565b9050919050565b6000819050919050565b60006115758261144e565b91506115808361144e565b9250826115905761158f6115ca565b5b828206905092915050565b7f4e487b7100000000000000000000000000000000000000000000000000000000600052601160045260246000fd5b7f4e487b7100000000000000000000000000000000000000000000000000000000600052601260045260246000fd5b7f4e487b7100000000000000000000000000000000000000000000000000000000600052602260045260246000fd5b6000601f19601f8301169050919050565b60008160601b9050919050565b61164f81611410565b811461165a57600080fd5b50565b6116668161144e565b811461167157600080fd5b5056fea2646970667358221220ddc1989ba95772b31849c8395031c3c313b14a6a7d10c1c66c5a2e581d75417764736f6c63430008000033",
  "immutableReferences": {},
  "source": "// SPDX-License-Identifier: MIT\npragma solidity ^0.8.0;\n// use single pragma version for security\n\nimport \"@openzeppelin/contracts/access/Ownable.sol\";\n\ncontract raffleLottery is Ownable {\n    // Owner address of the lottery contract\n    // address public owner;\n\n    // name of the lottery\n    string public lotteryName;\n    // ticket price\n    uint public ticketPrice;\n    // Running entry count\n    uint public entryCount;\n    // Running jackpot Total\n    uint public jackpotTotal;\n\n    // variables for players - player can enter name they choose... add name checking function if so)\n    struct Player {\n        // string name;\n        address payable playerAddress;\n    }\n    \n    // simple with no player name\n    // create mapping of raffle ticket number -> player address\n    mapping(uint => Player) entries;\n\n    // Variables for lottery information\n    bool public isLotteryLive; // inactive/active undeployed/deployed\n    bool public hasLotteryEnded; // used for when a winner is declared on the deployed contract\n\n    address public winnerAddress;\n    uint public winnerEntryNumber;\n    uint public winnerPrize;\n\n    // Modifiers\n    // only owner can declare winner\n    // modifier isOwner() {\n    //     require(msg.sender == owner);\n    //     _;\n    // }\n    // Open Zepp ownable used\n\n    // owner not allowed to enter lottery (as when they choose the randNonce in declareWinner they could use it advantageously)\n    // ofc the owner could enter lottery from other accounts they have the private key too... this is a problem and requires trust\n    modifier isNotOwner() {\n        require(msg.sender != owner());\n        _;\n    }\n\n    // Events\n    event runningJackpotTotal(uint jackpotTotal);\n    event runningEntryCount(uint entryCount);\n    event lotteryActive(bool isLotteryLive);\n    // enterLottery event\n    event playerEntered(address playerAddress, uint numEntries, uint[] raffleNumbers);\n    // declareWinner event\n    event winnerDeclared(uint entryNumber, address playerAddress, uint jackpotTotal);\n    // testing if there will be a difference between running jackpot total and this.balance at the end\n    event discrepencyTest(uint discrepency);\n    // event for testing num gen function\n    event randomNumGen(uint randomNum);\n\n    // constructor\n    constructor () public {\n        // Set the owner of contract to the transaction sender/deployer\n        // owner = msg.sender;\n        // name of lottery\n        lotteryName = \"Laugh Alottery\";\n        // ticket price\n        ticketPrice = 1 ether;\n\n        entryCount = 1; // initialise at 1, because we dont want a raffle ticket number of 0\n        // Would default to 0 probs but good for clarity\n        jackpotTotal = address(this).balance * 99 / 100;\n        // 1% of jackpot goes to owner for delpoyment gas fees\n        // Could build a contract that doesnt need to be redeployed from scratch\n        // one that can initiate the lottery from the existing deployed contract\n\n        // lottery is live when contract is created\n        isLotteryLive = true;\n        hasLotteryEnded = false;\n\n        // For front end updates\n        emit lotteryActive(isLotteryLive);\n        emit runningEntryCount(entryCount);\n        emit runningJackpotTotal(jackpotTotal);\n    }\n\n    // Fallback function reverting tx if invalid data/function called\n    // so eth is only sent to contract via enterLottery function\n    fallback() external payable {\n        revert();\n    }\n\n    function enterLottery(uint numEntries) public payable isNotOwner {\n        // Make sure a valid entry number is stated\n        require(numEntries > 0);\n        // require(numEntries < 30);\n        // Make sure the value of tx equals num entried * the price \n        // if not then something gone wrong... revert... maybe someone hacked the frontend??\n        require(msg.value == numEntries*ticketPrice);\n        // Make sure lottery is live before tx processed\n        require(isLotteryLive);\n\n        // Temporay array to gather and emit the raffle ticket numbers of the player\n        uint[] memory raffleNumbers = new uint[](numEntries);\n        uint raffleNumberIndex = 0;\n\n        for (uint i = entryCount; i < entryCount+numEntries; i++) {\n          // ____________________________\n          // entryCount += 1;\n          // ^^^^^^^^^^^^^^^^^^^^^ this line\n          // FOR ANYONE LOOKING AT MY CODE, i feel like you should know that i spent \n          // the better part of 2 days glued to my screen looking for a bug that i could not find\n          // I resorted to resetting my computer to factory settings and reinstalling everything again\n          // Little did i know the problem lay in this one little line of code\n          // effectively transforming this for loop into an infinite one...\n          // NO WONDER... well i guess i have now without a doubt learnt the hard way\n          // I ALSO MUST THANK REMIX BECAUSE THAT IS HOW I REALISED!\n\n          raffleNumbers[raffleNumberIndex] = i;\n          raffleNumberIndex += 1;\n\n          entries[i].playerAddress = payable(msg.sender);\n        }\n\n        entryCount += numEntries; // quick fix...\n        // and whats even funnier, is that this was the inital method\n        // and for some odd reason i implemented it in the for loop afterward\n\n        jackpotTotal = address(this).balance * 99 / 100;\n        // 99% of total balance is the prize\n        // remaining balance goes to owner... mostly for testing, can be omitted..\n        // seems like its easy to create a lottery without commision so user\n        // may be less inclined to use a lottery with owner commision\n        // unless the commission goes to a good cause or something like a charitbale donation\n        // commission for owner if the owner is trusted by the people entering lottery...\n    \n        // events for user confirmation\n        emit playerEntered(msg.sender, numEntries, raffleNumbers);\n\n        // For front end updates\n        emit runningEntryCount(entryCount);\n        emit runningJackpotTotal(jackpotTotal);\n    }\n\n    function declareWinner(uint randNonce) public onlyOwner {\n        // Mark the lottery inactive so no more entries\n        isLotteryLive = false;\n        hasLotteryEnded = true;\n\n        // For final front end lottery variable display updates\n        emit lotteryActive(isLotteryLive); // to show on frontend lottery has finished\n        emit runningEntryCount(entryCount);\n        emit runningJackpotTotal(jackpotTotal);\n\n        // for personal testing see if any discrepency\n        // uint discrepency = jackpotTotal - address(this).balance;\n        // emit discrepencyTest(discrepency);\n\n        // between 1 and entryCount\n        uint randomEntryNumber = generateRandomNumber(randNonce);\n    \n        entries[randomEntryNumber].playerAddress.call{value: jackpotTotal}(\"\");\n        \n        winnerAddress = entries[randomEntryNumber].playerAddress;\n        winnerEntryNumber = randomEntryNumber;\n        winnerPrize = jackpotTotal;\n    \n        // winner declartion for updating front end with winner details...\n        emit winnerDeclared(randomEntryNumber, entries[randomEntryNumber].playerAddress, jackpotTotal);\n    }\n\n    function selfDestruct() public onlyOwner {\n        require(!isLotteryLive);\n\n        // Self destruct contract after winner has been sent prize, and remaining balance goes to owner\n        // TIMER TO DESCRUCT??\n        selfdestruct(payable(owner()));\n    }\n\n    // when starting this project i didnt think about the nature of randomising numbers on the blockchain\n    // now i see there are some limiting factors that make it hard to fairly randomise on the blockchain\n    // Anyone who figures out how your contract produces randomness can anticipate its results and use this information to exploit your app\n    // like malicious actors could predict the parameters used to randomise and gain an unfair advantage possibly\n    // and randomising using complex algorithms takes to much computational power so is not viable on the network\n    // Unless a portion of the jackpot goes to gas fees to do just that!\n    \n\n    // generate random entry number between 1 -> entryCount\n    // -1 so that the entry number 0 can win the prize if minimum random number is 1...\n    // owner Declares winner and can choose a random nonce for generator function so cannot be predicted by anyone\n    // although owner could be malicious... and buy tickets and specify a nonce for their own gain\n    // Owner priveledges could be set to multiple accounts aswell so that the 'msg.sender' input\n    // in the generator function cannot be predicted...\n    // since owner initiates the declareWinner function the block timestamp cannot be predicted i think?\n    // all of this relies on the owner being trustworthy and transparent...\n    function generateRandomNumber(uint randNonce) private view returns(uint) {\n        // found this new looking method for generating a somewhat random numero\n        // still uses block timestamp which could be a method of attack for a malicious miner\n        randNonce++; \n        return uint(keccak256(abi.encodePacked(block.timestamp, msg.sender, randNonce))) % entryCount;\n    }\n\n    // testing random number generator function \n    function generateRandomNumberTest(uint randNonce, uint entryCountTest) public onlyOwner {\n        // found this new looking method for generating a somewhat random numero\n        // still uses block timestamp which could be a method of attack for a malicious miner\n        //EVENT EMIT FUNCTION TO SEE RETURN VALUE???\n        randNonce++; \n        uint randomNum = uint(keccak256(abi.encodePacked(block.timestamp, msg.sender, randNonce))) % entryCountTest;\n        emit randomNumGen(randomNum);\n    }\n}",
  "sourcePath": "/Users/thomasbutterfield/git/blockchain-developer-bootcamp-final-project/truffle/contracts/raffleLottery.sol",
  "compiler": {
    "name": "solc",
    "version": "0.8.0+commit.c7dfd78e.Emscripten.clang"
  },
  "schemaVersion": "3.4.3",
  "updatedAt": "2021-12-03T11:58:33.883Z",
  "devdoc": {
    "kind": "dev",
    "methods": {
      "owner()": {
        "details": "Returns the address of the current owner."
      },
      "renounceOwnership()": {
        "details": "Leaves the contract without owner. It will not be possible to call `onlyOwner` functions anymore. Can only be called by the current owner. NOTE: Renouncing ownership will leave the contract without an owner, thereby removing any functionality that is only available to the owner."
      },
      "transferOwnership(address)": {
        "details": "Transfers ownership of the contract to a new account (`newOwner`). Can only be called by the current owner."
      }
    },
    "version": 1
  },
  "userdoc": {
    "kind": "user",
    "methods": {},
    "version": 1
  }
}