{
  "contractName": "raffleLottery",
  "abi": [
    {
      "inputs": [],
      "stateMutability": "nonpayable",
      "type": "constructor"
    },
    {
      "anonymous": false,
      "inputs": [
        {
          "indexed": false,
          "internalType": "uint256",
          "name": "discrepency",
          "type": "uint256"
        }
      ],
      "name": "discrepencyTest",
      "type": "event"
    },
    {
      "anonymous": false,
      "inputs": [
        {
          "indexed": false,
          "internalType": "bool",
          "name": "isLotteryLive",
          "type": "bool"
        }
      ],
      "name": "lotteryActive",
      "type": "event"
    },
    {
      "anonymous": false,
      "inputs": [
        {
          "indexed": false,
          "internalType": "address",
          "name": "playerAddress",
          "type": "address"
        },
        {
          "indexed": false,
          "internalType": "uint256",
          "name": "numEntries",
          "type": "uint256"
        }
      ],
      "name": "playerEntered",
      "type": "event"
    },
    {
      "anonymous": false,
      "inputs": [
        {
          "indexed": false,
          "internalType": "uint256",
          "name": "randomNum",
          "type": "uint256"
        }
      ],
      "name": "randomNumGen",
      "type": "event"
    },
    {
      "anonymous": false,
      "inputs": [
        {
          "indexed": false,
          "internalType": "uint256",
          "name": "entryCount",
          "type": "uint256"
        }
      ],
      "name": "runningEntryCount",
      "type": "event"
    },
    {
      "anonymous": false,
      "inputs": [
        {
          "indexed": false,
          "internalType": "uint256",
          "name": "jackpotTotal",
          "type": "uint256"
        }
      ],
      "name": "runningJackpotTotal",
      "type": "event"
    },
    {
      "anonymous": false,
      "inputs": [
        {
          "indexed": false,
          "internalType": "uint256",
          "name": "entryNumber",
          "type": "uint256"
        },
        {
          "indexed": false,
          "internalType": "address",
          "name": "playerAddress",
          "type": "address"
        },
        {
          "indexed": false,
          "internalType": "uint256",
          "name": "jackpotTotal",
          "type": "uint256"
        }
      ],
      "name": "winnerDeclared",
      "type": "event"
    },
    {
      "stateMutability": "payable",
      "type": "fallback",
      "payable": true
    },
    {
      "inputs": [],
      "name": "entryCount",
      "outputs": [
        {
          "internalType": "uint256",
          "name": "",
          "type": "uint256"
        }
      ],
      "stateMutability": "view",
      "type": "function",
      "constant": true
    },
    {
      "inputs": [],
      "name": "isLotteryLive",
      "outputs": [
        {
          "internalType": "bool",
          "name": "",
          "type": "bool"
        }
      ],
      "stateMutability": "view",
      "type": "function",
      "constant": true
    },
    {
      "inputs": [],
      "name": "jackpotTotal",
      "outputs": [
        {
          "internalType": "uint256",
          "name": "",
          "type": "uint256"
        }
      ],
      "stateMutability": "view",
      "type": "function",
      "constant": true
    },
    {
      "inputs": [],
      "name": "lotteryName",
      "outputs": [
        {
          "internalType": "string",
          "name": "",
          "type": "string"
        }
      ],
      "stateMutability": "view",
      "type": "function",
      "constant": true
    },
    {
      "inputs": [],
      "name": "owner",
      "outputs": [
        {
          "internalType": "address",
          "name": "",
          "type": "address"
        }
      ],
      "stateMutability": "view",
      "type": "function",
      "constant": true
    },
    {
      "inputs": [],
      "name": "ticketPrice",
      "outputs": [
        {
          "internalType": "uint256",
          "name": "",
          "type": "uint256"
        }
      ],
      "stateMutability": "view",
      "type": "function",
      "constant": true
    },
    {
      "inputs": [],
      "name": "winner",
      "outputs": [
        {
          "internalType": "address payable",
          "name": "playerAddress",
          "type": "address"
        }
      ],
      "stateMutability": "view",
      "type": "function",
      "constant": true
    },
    {
      "inputs": [
        {
          "internalType": "uint256",
          "name": "numEntries",
          "type": "uint256"
        }
      ],
      "name": "enterLottery",
      "outputs": [],
      "stateMutability": "payable",
      "type": "function",
      "payable": true
    },
    {
      "inputs": [
        {
          "internalType": "uint256",
          "name": "randNonce",
          "type": "uint256"
        }
      ],
      "name": "declareWinner",
      "outputs": [],
      "stateMutability": "nonpayable",
      "type": "function"
    },
    {
      "inputs": [
        {
          "internalType": "uint256",
          "name": "randNonce",
          "type": "uint256"
        },
        {
          "internalType": "uint256",
          "name": "entryCountTest",
          "type": "uint256"
        }
      ],
      "name": "generateRandomNumberTest",
      "outputs": [],
      "stateMutability": "nonpayable",
      "type": "function"
    }
  ],
  "bytecode": "0x60806040523480156200001157600080fd5b50336000806101000a81548173ffffffffffffffffffffffffffffffffffffffff021916908373ffffffffffffffffffffffffffffffffffffffff1602179055506040518060400160405280600e81526020017f4c6175676820416c6f7474657279000000000000000000000000000000000000815250600190805190602001906200009f929190620001b9565b50670de0b6b3a764000060028190555060006003819055506064606347620000c89190620002a2565b620000d4919062000332565b6004819055506001600760006101000a81548160ff0219169083151502179055507f27b66cd6ebd76751ebae5c8b3ef7bf0ab70b532a3d53a9181b32b446e759a32e600760009054906101000a900460ff1660405162000135919062000387565b60405180910390a17f7e3a4f5813b3c3e3b5104bcdb6a518f0d6fc57c1347ceb9b7ca4010921d64e24600354604051620001709190620003b5565b60405180910390a17fc69d6520c09756236a03fc85859523e52933555c881f0b37179a2ff6da0367f0600454604051620001ab9190620003b5565b60405180910390a162000437565b828054620001c79062000401565b90600052602060002090601f016020900481019282620001eb576000855562000237565b82601f106200020657805160ff191683800117855562000237565b8280016001018555821562000237579182015b828111156200023657825182559160200191906001019062000219565b5b5090506200024691906200024a565b5090565b5b80821115620002655760008160009055506001016200024b565b5090565b6000819050919050565b7f4e487b7100000000000000000000000000000000000000000000000000000000600052601160045260246000fd5b6000620002af8262000269565b9150620002bc8362000269565b9250817fffffffffffffffffffffffffffffffffffffffffffffffffffffffffffffffff0483118215151615620002f857620002f762000273565b5b828202905092915050565b7f4e487b7100000000000000000000000000000000000000000000000000000000600052601260045260246000fd5b60006200033f8262000269565b91506200034c8362000269565b9250826200035f576200035e62000303565b5b828204905092915050565b60008115159050919050565b62000381816200036a565b82525050565b60006020820190506200039e600083018462000376565b92915050565b620003af8162000269565b82525050565b6000602082019050620003cc6000830184620003a4565b92915050565b7f4e487b7100000000000000000000000000000000000000000000000000000000600052602260045260246000fd5b600060028204905060018216806200041a57607f821691505b60208210811415620004315762000430620003d2565b5b50919050565b610ee380620004476000396000f3fe6080604052600436106100945760003560e01c806323d141491161005957806323d141491461016f5780633fd430981461019a5780636d30eca7146101b65780638da5cb5b146101df578063dfbf53ae1461020a57610095565b8062c2943c1461009a5780630cbb0f83146100c357806310c85fe5146100ee5780631209b1f6146101195780631da709f41461014457610095565b5b600080fd5b3480156100a657600080fd5b506100c160048036038101906100bc919061090e565b610235565b005b3480156100cf57600080fd5b506100d8610498565b6040516100e5919061094a565b60405180910390f35b3480156100fa57600080fd5b5061010361049e565b6040516101109190610980565b60405180910390f35b34801561012557600080fd5b5061012e6104b1565b60405161013b919061094a565b60405180910390f35b34801561015057600080fd5b506101596104b7565b604051610166919061094a565b60405180910390f35b34801561017b57600080fd5b506101846104bd565b6040516101919190610a34565b60405180910390f35b6101b460048036038101906101af919061090e565b61054b565b005b3480156101c257600080fd5b506101dd60048036038101906101d89190610a56565b610752565b005b3480156101eb57600080fd5b506101f4610831565b6040516102019190610ad7565b60405180910390f35b34801561021657600080fd5b5061021f610855565b60405161022c9190610b13565b60405180910390f35b60008054906101000a900473ffffffffffffffffffffffffffffffffffffffff1673ffffffffffffffffffffffffffffffffffffffff163373ffffffffffffffffffffffffffffffffffffffff161461028d57600080fd5b6000600760006101000a81548160ff0219169083151502179055507f27b66cd6ebd76751ebae5c8b3ef7bf0ab70b532a3d53a9181b32b446e759a32e600760009054906101000a900460ff166040516102e69190610980565b60405180910390a17f7e3a4f5813b3c3e3b5104bcdb6a518f0d6fc57c1347ceb9b7ca4010921d64e2460035460405161031f919061094a565b60405180910390a17fc69d6520c09756236a03fc85859523e52933555c881f0b37179a2ff6da0367f0600454604051610358919061094a565b60405180910390a1600061036b82610881565b90506005600082815260200190815260200160002060000160009054906101000a900473ffffffffffffffffffffffffffffffffffffffff1673ffffffffffffffffffffffffffffffffffffffff166108fc6004549081150290604051600060405180830381858888f193505050501580156103eb573d6000803e3d6000fd5b507fa7df64737446f301c9dbc88f3f02e06b341e5aa0c1c70fb7e887cabdad1c786a816005600084815260200190815260200160002060000160009054906101000a900473ffffffffffffffffffffffffffffffffffffffff1660045460405161045793929190610b8d565b60405180910390a160008054906101000a900473ffffffffffffffffffffffffffffffffffffffff1673ffffffffffffffffffffffffffffffffffffffff16ff5b60035481565b600760009054906101000a900460ff1681565b60025481565b60045481565b600180546104ca90610bf3565b80601f01602080910402602001604051908101604052809291908181526020018280546104f690610bf3565b80156105435780601f1061051857610100808354040283529160200191610543565b820191906000526020600020905b81548152906001019060200180831161052657829003601f168201915b505050505081565b60008054906101000a900473ffffffffffffffffffffffffffffffffffffffff1673ffffffffffffffffffffffffffffffffffffffff163373ffffffffffffffffffffffffffffffffffffffff1614156105a457600080fd5b600081116105b157600080fd5b600254816105bf9190610c54565b34146105ca57600080fd5b600760009054906101000a900460ff166105e357600080fd5b600060035490505b816003546105f99190610cae565b811015610684576001600360008282546106139190610cae565b925050819055503360056000600354815260200190815260200160002060000160006101000a81548173ffffffffffffffffffffffffffffffffffffffff021916908373ffffffffffffffffffffffffffffffffffffffff160217905550808061067c90610d04565b9150506105eb565b5060646063476106949190610c54565b61069e9190610d7c565b6004819055507fa9964d327410237af9473d63560d6897013bdc06a2badbfbd6b193a0e9fda2e733826040516106d5929190610dad565b60405180910390a17f7e3a4f5813b3c3e3b5104bcdb6a518f0d6fc57c1347ceb9b7ca4010921d64e2460035460405161070e919061094a565b60405180910390a17fc69d6520c09756236a03fc85859523e52933555c881f0b37179a2ff6da0367f0600454604051610747919061094a565b60405180910390a150565b60008054906101000a900473ffffffffffffffffffffffffffffffffffffffff1673ffffffffffffffffffffffffffffffffffffffff163373ffffffffffffffffffffffffffffffffffffffff16146107aa57600080fd5b81806107b590610d04565b9250506000814233856040516020016107d093929190610e3f565b6040516020818303038152906040528051906020012060001c6107f39190610e7c565b90507f390fd0d5a5bb3baee404551d61d45047869ade7b6a6cf71906e740e18d958d2081604051610824919061094a565b60405180910390a1505050565b60008054906101000a900473ffffffffffffffffffffffffffffffffffffffff1681565b60068060000160009054906101000a900473ffffffffffffffffffffffffffffffffffffffff16905081565b6000818061088e90610d04565b9250506003544233846040516020016108a993929190610e3f565b6040516020818303038152906040528051906020012060001c6108cc9190610e7c565b9050919050565b600080fd5b6000819050919050565b6108eb816108d8565b81146108f657600080fd5b50565b600081359050610908816108e2565b92915050565b600060208284031215610924576109236108d3565b5b6000610932848285016108f9565b91505092915050565b610944816108d8565b82525050565b600060208201905061095f600083018461093b565b92915050565b60008115159050919050565b61097a81610965565b82525050565b60006020820190506109956000830184610971565b92915050565b600081519050919050565b600082825260208201905092915050565b60005b838110156109d55780820151818401526020810190506109ba565b838111156109e4576000848401525b50505050565b6000601f19601f8301169050919050565b6000610a068261099b565b610a1081856109a6565b9350610a208185602086016109b7565b610a29816109ea565b840191505092915050565b60006020820190508181036000830152610a4e81846109fb565b905092915050565b60008060408385031215610a6d57610a6c6108d3565b5b6000610a7b858286016108f9565b9250506020610a8c858286016108f9565b9150509250929050565b600073ffffffffffffffffffffffffffffffffffffffff82169050919050565b6000610ac182610a96565b9050919050565b610ad181610ab6565b82525050565b6000602082019050610aec6000830184610ac8565b92915050565b6000610afd82610a96565b9050919050565b610b0d81610af2565b82525050565b6000602082019050610b286000830184610b04565b92915050565b6000819050919050565b6000610b53610b4e610b4984610a96565b610b2e565b610a96565b9050919050565b6000610b6582610b38565b9050919050565b6000610b7782610b5a565b9050919050565b610b8781610b6c565b82525050565b6000606082019050610ba2600083018661093b565b610baf6020830185610b7e565b610bbc604083018461093b565b949350505050565b7f4e487b7100000000000000000000000000000000000000000000000000000000600052602260045260246000fd5b60006002820490506001821680610c0b57607f821691505b60208210811415610c1f57610c1e610bc4565b5b50919050565b7f4e487b7100000000000000000000000000000000000000000000000000000000600052601160045260246000fd5b6000610c5f826108d8565b9150610c6a836108d8565b9250817fffffffffffffffffffffffffffffffffffffffffffffffffffffffffffffffff0483118215151615610ca357610ca2610c25565b5b828202905092915050565b6000610cb9826108d8565b9150610cc4836108d8565b9250827fffffffffffffffffffffffffffffffffffffffffffffffffffffffffffffffff03821115610cf957610cf8610c25565b5b828201905092915050565b6000610d0f826108d8565b91507fffffffffffffffffffffffffffffffffffffffffffffffffffffffffffffffff821415610d4257610d41610c25565b5b600182019050919050565b7f4e487b7100000000000000000000000000000000000000000000000000000000600052601260045260246000fd5b6000610d87826108d8565b9150610d92836108d8565b925082610da257610da1610d4d565b5b828204905092915050565b6000604082019050610dc26000830185610ac8565b610dcf602083018461093b565b9392505050565b6000819050919050565b610df1610dec826108d8565b610dd6565b82525050565b60008160601b9050919050565b6000610e0f82610df7565b9050919050565b6000610e2182610e04565b9050919050565b610e39610e3482610ab6565b610e16565b82525050565b6000610e4b8286610de0565b602082019150610e5b8285610e28565b601482019150610e6b8284610de0565b602082019150819050949350505050565b6000610e87826108d8565b9150610e92836108d8565b925082610ea257610ea1610d4d565b5b82820690509291505056fea26469706673582212203939f5b924cee0883c340fdfadbcf2495616db1aed135f37f42569ed831d038164736f6c634300080a0033",
  "immutableReferences": {},
  "source": "pragma solidity ^0.8.10;\n\ncontract raffleLottery {\n    // Owner address of the lottery contract\n    address public owner;\n\n    // name of the lottery\n    string public lotteryName;\n    // ticket price\n    uint public ticketPrice;\n    // Running entry count\n    uint public entryCount;\n    // Running jackpot Total\n    uint public jackpotTotal;\n\n    // variables for players - player can enter name they choose... add name checking function if so)\n    struct Player {\n        // string name;\n        address payable playerAddress;\n    }\n    \n    // simple with no player name\n    // create mapping of raffle ticket number -> player address\n    mapping(uint => Player) entries;\n\n    // Variables for lottery information\n    Player public winner;\n    bool public isLotteryLive;\n\n    // Modifiers\n    // only owner can declare winner\n    modifier isOwner() {\n        require(msg.sender == owner);\n        _;\n    }\n\n    // owner not allowed to enter lottery (as when they choose the randNonce in declareWinner they could use it advantageously)\n    // ofc the owner could enter lottery from other accounts they have the private key too... this is a problem and requires trust\n    modifier isNotOwner() {\n        require(msg.sender != owner);\n        _;\n    }\n\n    // Events\n    event runningJackpotTotal(uint jackpotTotal);\n    event runningEntryCount(uint entryCount);\n    event lotteryActive(bool isLotteryLive);\n    // enterLottery event\n    event playerEntered(address playerAddress, uint numEntries);\n    // declareWinner event\n    event winnerDeclared(uint entryNumber, address playerAddress, uint jackpotTotal);\n    // testing if there will be a difference between running jackpot total and this.balance at the end\n    event discrepencyTest(uint discrepency);\n    // event for testing num gen function\n    event randomNumGen(uint randomNum);\n\n    // constructor\n    constructor () public {\n        // Set the owner of contract to the transaction sender/deployer\n        owner = msg.sender;\n        // name of lottery\n        lotteryName = \"Laugh Alottery\";\n        // ticket price\n        ticketPrice = 1 ether;\n\n        entryCount = 0;\n        // Would default to 0 probs but good for clarity\n        jackpotTotal = address(this).balance * 99 / 100;\n\n        // lottery is live when contract is created\n        isLotteryLive = true;\n\n        // For front end updates\n        emit lotteryActive(isLotteryLive);\n        emit runningEntryCount(entryCount);\n        emit runningJackpotTotal(jackpotTotal);\n    }\n\n    // Fallback function reverting tx if invalid data/function called\n    // so eth is only sent to contract via enterLottery function\n    fallback() external payable {\n        revert();\n    }\n\n    function enterLottery(uint numEntries) public payable isNotOwner {\n        // Make sure a valid entry number is stated\n        require(numEntries > 0);\n        // Make sure the value of tx equals num entried * the price \n        // if not then something gone wrong... revert... maybe someone hacked the frontend??\n        require(msg.value == numEntries*ticketPrice);\n        // Make sure lottery is live before tx processed\n        require(isLotteryLive);\n\n        for (uint i = entryCount; i < entryCount+numEntries; i++) {\n          entryCount += 1; // first entry has a number of 1\n          entries[entryCount].playerAddress = payable(msg.sender);\n        }\n\n        jackpotTotal = address(this).balance * 99 / 100;\n        // 99% of total balance is the prize\n        // remaining balance goes to owner... mostly for testing, can be omitted..\n        // seems like its easy to create a lottery without commision so user\n        // may be less inclined to use a lottery with owner commision\n        // unless the commission goes to a good cause or something like a charitbale donation\n        // commission for owner if the owner is trusted by the people entering lottery...\n    \n        // events for user confirmation\n        emit playerEntered(msg.sender, numEntries);\n\n        // For front end updates\n        emit runningEntryCount(entryCount);\n        emit runningJackpotTotal(jackpotTotal);\n    }\n\n    function declareWinner(uint randNonce) public isOwner {\n        // Mark the lottery inactive so no more entries\n        isLotteryLive = false;\n\n        // For final front end lottery variable display updates\n        emit lotteryActive(isLotteryLive); // to show on frontend lottery has finished\n        emit runningEntryCount(entryCount);\n        emit runningJackpotTotal(jackpotTotal);\n\n        // for personal testing see if any discrepency\n        // uint discrepency = jackpotTotal - address(this).balance;\n        // emit discrepencyTest(discrepency);\n\n        // between 1 and entryCount\n        uint randomEntryNumber = generateRandomNumber(randNonce);\n    \n        entries[randomEntryNumber].playerAddress.transfer(jackpotTotal);\n    \n        // winner declartion for updating front end with winner details...\n        emit winnerDeclared(randomEntryNumber, entries[randomEntryNumber].playerAddress, jackpotTotal);\n        \n        // Self destruct contract after winner has been sent prize, and remaining balance goes to owner\n        selfdestruct(payable(owner));\n    }\n\n    // when starting this project i didnt think about the nature of randomising numbers on the blockchain\n    // now i see there are some limiting factors that make it hard to fairly randomise on the blockchain\n    // Anyone who figures out how your contract produces randomness can anticipate its results and use this information to exploit your app\n    // like malicious actors could predict the parameters used to randomise and gain an unfair advantage possibly\n    // and randomising using complex algorithms takes to much computational power so is not viable on the network\n    // Unless a portion of the jackpot goes to gas fees to do just that!\n    \n\n    // generate random entry number between 1 -> entryCount\n    // -1 so that the entry number 0 can win the prize if minimum random number is 1...\n    // owner Declares winner and can choose a random nonce for generator function so cannot be predicted by anyone\n    // although owner could be malicious... and buy tickets and specify a nonce for their own gain\n    // Owner priveledges could be set to multiple accounts aswell so that the 'msg.sender' input\n    // in the generator function cannot be predicted...\n    // since owner initiates the declareWinner function the block timestamp cannot be predicted i think?\n    // all of this relies on the owner being trustworthy and transparent...\n    function generateRandomNumber(uint randNonce) private view returns(uint) {\n        // found this new looking method for generating a somewhat random numero\n        // still uses block timestamp which could be a method of attack for a malicious miner\n        randNonce++; \n        return uint(keccak256(abi.encodePacked(block.timestamp, msg.sender, randNonce))) % entryCount;\n    }\n\n    // testing random number generator function \n    function generateRandomNumberTest(uint randNonce, uint entryCountTest) public isOwner {\n        // found this new looking method for generating a somewhat random numero\n        // still uses block timestamp which could be a method of attack for a malicious miner\n        //EVENT EMIT FUNCTION TO SEE RETURN VALUE???\n        randNonce++; \n        uint randomNum = uint(keccak256(abi.encodePacked(block.timestamp, msg.sender, randNonce))) % entryCountTest;\n        emit randomNumGen(randomNum);\n    }\n}",
  "sourcePath": "/Users/thomasbutterfield/Documents/git/blockchain-developer-bootcamp-final-project/truffle/contracts/raffleLottery.sol",
  "compiler": {
    "name": "solc",
    "version": "0.8.10+commit.fc410830.Emscripten.clang"
  },
  "schemaVersion": "3.4.3",
  "updatedAt": "2021-12-02T05:31:48.412Z",
  "networkType": "ethereum",
  "devdoc": {
    "kind": "dev",
    "methods": {},
    "version": 1
  },
  "userdoc": {
    "kind": "user",
    "methods": {},
    "version": 1
  }
}