{
  "contractName": "raffleLottery",
  "abi": [
    {
      "inputs": [],
      "stateMutability": "nonpayable",
      "type": "constructor"
    },
    {
      "anonymous": false,
      "inputs": [
        {
          "indexed": false,
          "internalType": "uint256",
          "name": "discrepency",
          "type": "uint256"
        }
      ],
      "name": "discrepencyTest",
      "type": "event"
    },
    {
      "anonymous": false,
      "inputs": [
        {
          "indexed": false,
          "internalType": "bool",
          "name": "isLotteryLive",
          "type": "bool"
        }
      ],
      "name": "lotteryActive",
      "type": "event"
    },
    {
      "anonymous": false,
      "inputs": [
        {
          "indexed": false,
          "internalType": "address",
          "name": "playerAddress",
          "type": "address"
        },
        {
          "indexed": false,
          "internalType": "uint256",
          "name": "numEntries",
          "type": "uint256"
        },
        {
          "indexed": false,
          "internalType": "uint256[]",
          "name": "raffleNumbers",
          "type": "uint256[]"
        }
      ],
      "name": "playerEntered",
      "type": "event"
    },
    {
      "anonymous": false,
      "inputs": [
        {
          "indexed": false,
          "internalType": "uint256",
          "name": "randomNum",
          "type": "uint256"
        }
      ],
      "name": "randomNumGen",
      "type": "event"
    },
    {
      "anonymous": false,
      "inputs": [
        {
          "indexed": false,
          "internalType": "uint256",
          "name": "entryCount",
          "type": "uint256"
        }
      ],
      "name": "runningEntryCount",
      "type": "event"
    },
    {
      "anonymous": false,
      "inputs": [
        {
          "indexed": false,
          "internalType": "uint256",
          "name": "jackpotTotal",
          "type": "uint256"
        }
      ],
      "name": "runningJackpotTotal",
      "type": "event"
    },
    {
      "anonymous": false,
      "inputs": [
        {
          "indexed": false,
          "internalType": "uint256",
          "name": "entryNumber",
          "type": "uint256"
        },
        {
          "indexed": false,
          "internalType": "address",
          "name": "playerAddress",
          "type": "address"
        },
        {
          "indexed": false,
          "internalType": "uint256",
          "name": "jackpotTotal",
          "type": "uint256"
        }
      ],
      "name": "winnerDeclared",
      "type": "event"
    },
    {
      "stateMutability": "payable",
      "type": "fallback",
      "payable": true
    },
    {
      "inputs": [],
      "name": "entryCount",
      "outputs": [
        {
          "internalType": "uint256",
          "name": "",
          "type": "uint256"
        }
      ],
      "stateMutability": "view",
      "type": "function",
      "constant": true
    },
    {
      "inputs": [],
      "name": "hasLotteryEnded",
      "outputs": [
        {
          "internalType": "bool",
          "name": "",
          "type": "bool"
        }
      ],
      "stateMutability": "view",
      "type": "function",
      "constant": true
    },
    {
      "inputs": [],
      "name": "isLotteryLive",
      "outputs": [
        {
          "internalType": "bool",
          "name": "",
          "type": "bool"
        }
      ],
      "stateMutability": "view",
      "type": "function",
      "constant": true
    },
    {
      "inputs": [],
      "name": "jackpotTotal",
      "outputs": [
        {
          "internalType": "uint256",
          "name": "",
          "type": "uint256"
        }
      ],
      "stateMutability": "view",
      "type": "function",
      "constant": true
    },
    {
      "inputs": [],
      "name": "lotteryName",
      "outputs": [
        {
          "internalType": "string",
          "name": "",
          "type": "string"
        }
      ],
      "stateMutability": "view",
      "type": "function",
      "constant": true
    },
    {
      "inputs": [],
      "name": "owner",
      "outputs": [
        {
          "internalType": "address",
          "name": "",
          "type": "address"
        }
      ],
      "stateMutability": "view",
      "type": "function",
      "constant": true
    },
    {
      "inputs": [],
      "name": "ticketPrice",
      "outputs": [
        {
          "internalType": "uint256",
          "name": "",
          "type": "uint256"
        }
      ],
      "stateMutability": "view",
      "type": "function",
      "constant": true
    },
    {
      "inputs": [],
      "name": "winnerAddress",
      "outputs": [
        {
          "internalType": "address",
          "name": "",
          "type": "address"
        }
      ],
      "stateMutability": "view",
      "type": "function",
      "constant": true
    },
    {
      "inputs": [],
      "name": "winnerEntryNumber",
      "outputs": [
        {
          "internalType": "uint256",
          "name": "",
          "type": "uint256"
        }
      ],
      "stateMutability": "view",
      "type": "function",
      "constant": true
    },
    {
      "inputs": [],
      "name": "winnerPrize",
      "outputs": [
        {
          "internalType": "uint256",
          "name": "",
          "type": "uint256"
        }
      ],
      "stateMutability": "view",
      "type": "function",
      "constant": true
    },
    {
      "inputs": [
        {
          "internalType": "uint256",
          "name": "numEntries",
          "type": "uint256"
        }
      ],
      "name": "enterLottery",
      "outputs": [],
      "stateMutability": "payable",
      "type": "function",
      "payable": true
    },
    {
      "inputs": [
        {
          "internalType": "uint256",
          "name": "randNonce",
          "type": "uint256"
        }
      ],
      "name": "declareWinner",
      "outputs": [],
      "stateMutability": "nonpayable",
      "type": "function"
    },
    {
      "inputs": [],
      "name": "selfDestruct",
      "outputs": [],
      "stateMutability": "nonpayable",
      "type": "function"
    },
    {
      "inputs": [
        {
          "internalType": "uint256",
          "name": "randNonce",
          "type": "uint256"
        },
        {
          "internalType": "uint256",
          "name": "entryCountTest",
          "type": "uint256"
        }
      ],
      "name": "generateRandomNumberTest",
      "outputs": [],
      "stateMutability": "nonpayable",
      "type": "function"
    }
  ],
  "bytecode": "0x60806040523480156200001157600080fd5b50336000806101000a81548173ffffffffffffffffffffffffffffffffffffffff021916908373ffffffffffffffffffffffffffffffffffffffff1602179055506040518060400160405280600e81526020017f4c6175676820416c6f7474657279000000000000000000000000000000000000815250600190805190602001906200009f929190620001d4565b50670de0b6b3a764000060028190555060016003819055506064606347620000c89190620002bd565b620000d491906200034d565b6004819055506001600660006101000a81548160ff0219169083151502179055506000600660016101000a81548160ff0219169083151502179055507f27b66cd6ebd76751ebae5c8b3ef7bf0ab70b532a3d53a9181b32b446e759a32e600660009054906101000a900460ff16604051620001509190620003a2565b60405180910390a17f7e3a4f5813b3c3e3b5104bcdb6a518f0d6fc57c1347ceb9b7ca4010921d64e246003546040516200018b9190620003d0565b60405180910390a17fc69d6520c09756236a03fc85859523e52933555c881f0b37179a2ff6da0367f0600454604051620001c69190620003d0565b60405180910390a162000452565b828054620001e2906200041c565b90600052602060002090601f01602090048101928262000206576000855562000252565b82601f106200022157805160ff191683800117855562000252565b8280016001018555821562000252579182015b828111156200025157825182559160200191906001019062000234565b5b50905062000261919062000265565b5090565b5b808211156200028057600081600090555060010162000266565b5090565b6000819050919050565b7f4e487b7100000000000000000000000000000000000000000000000000000000600052601160045260246000fd5b6000620002ca8262000284565b9150620002d78362000284565b9250817fffffffffffffffffffffffffffffffffffffffffffffffffffffffffffffffff04831182151516156200031357620003126200028e565b5b828202905092915050565b7f4e487b7100000000000000000000000000000000000000000000000000000000600052601260045260246000fd5b60006200035a8262000284565b9150620003678362000284565b9250826200037a57620003796200031e565b5b828204905092915050565b60008115159050919050565b6200039c8162000385565b82525050565b6000602082019050620003b9600083018462000391565b92915050565b620003ca8162000284565b82525050565b6000602082019050620003e76000830184620003bf565b92915050565b7f4e487b7100000000000000000000000000000000000000000000000000000000600052602260045260246000fd5b600060028204905060018216806200043557607f821691505b602082108114156200044c576200044b620003ed565b5b50919050565b6112d380620004626000396000f3fe6080604052600436106100e05760003560e01c806323d141491161007f5780638da5cb5b116100595780638da5cb5b146102815780639cb8a26a146102ac578063e42319dc146102c3578063ed7a4e0b146102ee576100e1565b806323d14149146102115780633fd430981461023c5780636d30eca714610258576100e1565b80631209b1f6116100bb5780631209b1f6146101655780631da709f4146101905780632017aa2f146101bb578063214701c5146101e6576100e1565b8062c2943c146100e65780630cbb0f831461010f57806310c85fe51461013a576100e1565b5b600080fd5b3480156100f257600080fd5b5061010d60048036038101906101089190610bc3565b610319565b005b34801561011b57600080fd5b5061012461060b565b6040516101319190610bff565b60405180910390f35b34801561014657600080fd5b5061014f610611565b60405161015c9190610c35565b60405180910390f35b34801561017157600080fd5b5061017a610624565b6040516101879190610bff565b60405180910390f35b34801561019c57600080fd5b506101a561062a565b6040516101b29190610bff565b60405180910390f35b3480156101c757600080fd5b506101d0610630565b6040516101dd9190610bff565b60405180910390f35b3480156101f257600080fd5b506101fb610636565b6040516102089190610c35565b60405180910390f35b34801561021d57600080fd5b50610226610649565b6040516102339190610ce9565b60405180910390f35b61025660048036038101906102519190610bc3565b6106d7565b005b34801561026457600080fd5b5061027f600480360381019061027a9190610d0b565b61095c565b005b34801561028d57600080fd5b50610296610a3b565b6040516102a39190610d8c565b60405180910390f35b3480156102b857600080fd5b506102c1610a5f565b005b3480156102cf57600080fd5b506102d8610b0a565b6040516102e59190610bff565b60405180910390f35b3480156102fa57600080fd5b50610303610b10565b6040516103109190610d8c565b60405180910390f35b60008054906101000a900473ffffffffffffffffffffffffffffffffffffffff1673ffffffffffffffffffffffffffffffffffffffff163373ffffffffffffffffffffffffffffffffffffffff161461037157600080fd5b6000600660006101000a81548160ff0219169083151502179055506001600660016101000a81548160ff0219169083151502179055507f27b66cd6ebd76751ebae5c8b3ef7bf0ab70b532a3d53a9181b32b446e759a32e600660009054906101000a900460ff166040516103e59190610c35565b60405180910390a17f7e3a4f5813b3c3e3b5104bcdb6a518f0d6fc57c1347ceb9b7ca4010921d64e2460035460405161041e9190610bff565b60405180910390a17fc69d6520c09756236a03fc85859523e52933555c881f0b37179a2ff6da0367f06004546040516104579190610bff565b60405180910390a1600061046a82610b36565b90506005600082815260200190815260200160002060000160009054906101000a900473ffffffffffffffffffffffffffffffffffffffff1673ffffffffffffffffffffffffffffffffffffffff166004546040516104c890610dd8565b60006040518083038185875af1925050503d8060008114610505576040519150601f19603f3d011682016040523d82523d6000602084013e61050a565b606091505b5050506005600082815260200190815260200160002060000160009054906101000a900473ffffffffffffffffffffffffffffffffffffffff16600660026101000a81548173ffffffffffffffffffffffffffffffffffffffff021916908373ffffffffffffffffffffffffffffffffffffffff160217905550806007819055506004546008819055507fa7df64737446f301c9dbc88f3f02e06b341e5aa0c1c70fb7e887cabdad1c786a816005600084815260200190815260200160002060000160009054906101000a900473ffffffffffffffffffffffffffffffffffffffff166004546040516105ff93929190610e4c565b60405180910390a15050565b60035481565b600660009054906101000a900460ff1681565b60025481565b60045481565b60085481565b600660019054906101000a900460ff1681565b6001805461065690610eb2565b80601f016020809104026020016040519081016040528092919081815260200182805461068290610eb2565b80156106cf5780601f106106a4576101008083540402835291602001916106cf565b820191906000526020600020905b8154815290600101906020018083116106b257829003601f168201915b505050505081565b60008054906101000a900473ffffffffffffffffffffffffffffffffffffffff1673ffffffffffffffffffffffffffffffffffffffff163373ffffffffffffffffffffffffffffffffffffffff16141561073057600080fd5b6000811161073d57600080fd5b6002548161074b9190610f13565b341461075657600080fd5b600660009054906101000a900460ff1661076f57600080fd5b60008167ffffffffffffffff81111561078b5761078a610f6d565b5b6040519080825280602002602001820160405280156107b95781602001602082028036833780820191505090505b50905060008060035490505b836003546107d39190610f9c565b81101561087157808383815181106107ee576107ed610ff2565b5b6020026020010181815250506001826108079190610f9c565b9150336005600083815260200190815260200160002060000160006101000a81548173ffffffffffffffffffffffffffffffffffffffff021916908373ffffffffffffffffffffffffffffffffffffffff160217905550808061086990611021565b9150506107c5565b5082600360008282546108849190610f9c565b92505081905550606460634761089a9190610f13565b6108a49190611099565b6004819055507f475dac909e62784bd7764746ac48a90c493477ac04a153bb5a01feacbc6f1ffa3384846040516108dd93929190611188565b60405180910390a17f7e3a4f5813b3c3e3b5104bcdb6a518f0d6fc57c1347ceb9b7ca4010921d64e246003546040516109169190610bff565b60405180910390a17fc69d6520c09756236a03fc85859523e52933555c881f0b37179a2ff6da0367f060045460405161094f9190610bff565b60405180910390a1505050565b60008054906101000a900473ffffffffffffffffffffffffffffffffffffffff1673ffffffffffffffffffffffffffffffffffffffff163373ffffffffffffffffffffffffffffffffffffffff16146109b457600080fd5b81806109bf90611021565b9250506000814233856040516020016109da9392919061122f565b6040516020818303038152906040528051906020012060001c6109fd919061126c565b90507f390fd0d5a5bb3baee404551d61d45047869ade7b6a6cf71906e740e18d958d2081604051610a2e9190610bff565b60405180910390a1505050565b60008054906101000a900473ffffffffffffffffffffffffffffffffffffffff1681565b60008054906101000a900473ffffffffffffffffffffffffffffffffffffffff1673ffffffffffffffffffffffffffffffffffffffff163373ffffffffffffffffffffffffffffffffffffffff1614610ab757600080fd5b600660009054906101000a900460ff1615610ad157600080fd5b60008054906101000a900473ffffffffffffffffffffffffffffffffffffffff1673ffffffffffffffffffffffffffffffffffffffff16ff5b60075481565b600660029054906101000a900473ffffffffffffffffffffffffffffffffffffffff1681565b60008180610b4390611021565b925050600354423384604051602001610b5e9392919061122f565b6040516020818303038152906040528051906020012060001c610b81919061126c565b9050919050565b600080fd5b6000819050919050565b610ba081610b8d565b8114610bab57600080fd5b50565b600081359050610bbd81610b97565b92915050565b600060208284031215610bd957610bd8610b88565b5b6000610be784828501610bae565b91505092915050565b610bf981610b8d565b82525050565b6000602082019050610c146000830184610bf0565b92915050565b60008115159050919050565b610c2f81610c1a565b82525050565b6000602082019050610c4a6000830184610c26565b92915050565b600081519050919050565b600082825260208201905092915050565b60005b83811015610c8a578082015181840152602081019050610c6f565b83811115610c99576000848401525b50505050565b6000601f19601f8301169050919050565b6000610cbb82610c50565b610cc58185610c5b565b9350610cd5818560208601610c6c565b610cde81610c9f565b840191505092915050565b60006020820190508181036000830152610d038184610cb0565b905092915050565b60008060408385031215610d2257610d21610b88565b5b6000610d3085828601610bae565b9250506020610d4185828601610bae565b9150509250929050565b600073ffffffffffffffffffffffffffffffffffffffff82169050919050565b6000610d7682610d4b565b9050919050565b610d8681610d6b565b82525050565b6000602082019050610da16000830184610d7d565b92915050565b600081905092915050565b50565b6000610dc2600083610da7565b9150610dcd82610db2565b600082019050919050565b6000610de382610db5565b9150819050919050565b6000819050919050565b6000610e12610e0d610e0884610d4b565b610ded565b610d4b565b9050919050565b6000610e2482610df7565b9050919050565b6000610e3682610e19565b9050919050565b610e4681610e2b565b82525050565b6000606082019050610e616000830186610bf0565b610e6e6020830185610e3d565b610e7b6040830184610bf0565b949350505050565b7f4e487b7100000000000000000000000000000000000000000000000000000000600052602260045260246000fd5b60006002820490506001821680610eca57607f821691505b60208210811415610ede57610edd610e83565b5b50919050565b7f4e487b7100000000000000000000000000000000000000000000000000000000600052601160045260246000fd5b6000610f1e82610b8d565b9150610f2983610b8d565b9250817fffffffffffffffffffffffffffffffffffffffffffffffffffffffffffffffff0483118215151615610f6257610f61610ee4565b5b828202905092915050565b7f4e487b7100000000000000000000000000000000000000000000000000000000600052604160045260246000fd5b6000610fa782610b8d565b9150610fb283610b8d565b9250827fffffffffffffffffffffffffffffffffffffffffffffffffffffffffffffffff03821115610fe757610fe6610ee4565b5b828201905092915050565b7f4e487b7100000000000000000000000000000000000000000000000000000000600052603260045260246000fd5b600061102c82610b8d565b91507fffffffffffffffffffffffffffffffffffffffffffffffffffffffffffffffff82141561105f5761105e610ee4565b5b600182019050919050565b7f4e487b7100000000000000000000000000000000000000000000000000000000600052601260045260246000fd5b60006110a482610b8d565b91506110af83610b8d565b9250826110bf576110be61106a565b5b828204905092915050565b600081519050919050565b600082825260208201905092915050565b6000819050602082019050919050565b6110ff81610b8d565b82525050565b600061111183836110f6565b60208301905092915050565b6000602082019050919050565b6000611135826110ca565b61113f81856110d5565b935061114a836110e6565b8060005b8381101561117b5781516111628882611105565b975061116d8361111d565b92505060018101905061114e565b5085935050505092915050565b600060608201905061119d6000830186610d7d565b6111aa6020830185610bf0565b81810360408301526111bc818461112a565b9050949350505050565b6000819050919050565b6111e16111dc82610b8d565b6111c6565b82525050565b60008160601b9050919050565b60006111ff826111e7565b9050919050565b6000611211826111f4565b9050919050565b61122961122482610d6b565b611206565b82525050565b600061123b82866111d0565b60208201915061124b8285611218565b60148201915061125b82846111d0565b602082019150819050949350505050565b600061127782610b8d565b915061128283610b8d565b9250826112925761129161106a565b5b82820690509291505056fea2646970667358221220d2c6d9adc8206eccb7da7fba031ef69a12099946d7fec67d821aadee0089d04964736f6c634300080a0033",
  "immutableReferences": {},
  "source": "pragma solidity ^0.8.10;\n\ncontract raffleLottery {\n    // Owner address of the lottery contract\n    address public owner;\n\n    // name of the lottery\n    string public lotteryName;\n    // ticket price\n    uint public ticketPrice;\n    // Running entry count\n    uint public entryCount;\n    // Running jackpot Total\n    uint public jackpotTotal;\n\n    // variables for players - player can enter name they choose... add name checking function if so)\n    struct Player {\n        // string name;\n        address payable playerAddress;\n    }\n    \n    // simple with no player name\n    // create mapping of raffle ticket number -> player address\n    mapping(uint => Player) entries;\n\n    // Variables for lottery information\n    bool public isLotteryLive; // inactive/active undeployed/deployed\n    bool public hasLotteryEnded; // used for when a winner is declared on the deployed contract\n\n    address public winnerAddress;\n    uint public winnerEntryNumber;\n    uint public winnerPrize;\n\n    // Modifiers\n    // only owner can declare winner\n    modifier isOwner() {\n        require(msg.sender == owner);\n        _;\n    }\n\n    // owner not allowed to enter lottery (as when they choose the randNonce in declareWinner they could use it advantageously)\n    // ofc the owner could enter lottery from other accounts they have the private key too... this is a problem and requires trust\n    modifier isNotOwner() {\n        require(msg.sender != owner);\n        _;\n    }\n\n    // Events\n    event runningJackpotTotal(uint jackpotTotal);\n    event runningEntryCount(uint entryCount);\n    event lotteryActive(bool isLotteryLive);\n    // enterLottery event\n    event playerEntered(address playerAddress, uint numEntries, uint[] raffleNumbers);\n    // declareWinner event\n    event winnerDeclared(uint entryNumber, address playerAddress, uint jackpotTotal);\n    // testing if there will be a difference between running jackpot total and this.balance at the end\n    event discrepencyTest(uint discrepency);\n    // event for testing num gen function\n    event randomNumGen(uint randomNum);\n\n    // constructor\n    constructor () public {\n        // Set the owner of contract to the transaction sender/deployer\n        owner = msg.sender;\n        // name of lottery\n        lotteryName = \"Laugh Alottery\";\n        // ticket price\n        ticketPrice = 1 ether;\n\n        entryCount = 1; // initialise at 1, because we dont want a raffle ticket number of 0\n        // Would default to 0 probs but good for clarity\n        jackpotTotal = address(this).balance * 99 / 100;\n        // 1% of jackpot goes to owner for delpoyment gas fees\n        // Could build a contract that doesnt need to be redeployed from scratch\n        // one that can initiate the lottery from the existing deployed contract\n\n        // lottery is live when contract is created\n        isLotteryLive = true;\n        hasLotteryEnded = false;\n\n        // For front end updates\n        emit lotteryActive(isLotteryLive);\n        emit runningEntryCount(entryCount);\n        emit runningJackpotTotal(jackpotTotal);\n    }\n\n    // Fallback function reverting tx if invalid data/function called\n    // so eth is only sent to contract via enterLottery function\n    fallback() external payable {\n        revert();\n    }\n\n    function enterLottery(uint numEntries) public payable isNotOwner {\n        // Make sure a valid entry number is stated\n        require(numEntries > 0);\n        // require(numEntries < 30);\n        // Make sure the value of tx equals num entried * the price \n        // if not then something gone wrong... revert... maybe someone hacked the frontend??\n        require(msg.value == numEntries*ticketPrice);\n        // Make sure lottery is live before tx processed\n        require(isLotteryLive);\n\n        // Temporay array to gather and emit the raffle ticket numbers of the player\n        uint[] memory raffleNumbers = new uint[](numEntries);\n        uint raffleNumberIndex = 0;\n\n        for (uint i = entryCount; i < entryCount+numEntries; i++) {\n          // ____________________________\n          // entryCount += 1;\n          // ^^^^^^^^^^^^^^^^^^^^^ this line\n          // FOR ANYONE LOOKING AT MY CODE, i feel like you should know that i spent \n          // the better part of 2 days glued to my screen looking for a bug that i could not find\n          // I resorted to resetting my computer to factory settings and reinstalling everything again\n          // Little did i know the problem lay in this one little line of code\n          // effectively transforming this for loop into an infinite one...\n          // NO WONDER... well i guess i have now without a doubt learnt the hard way\n          // I ALSO MUST THANK REMIX BECAUSE THAT IS HOW I REALISED!\n\n          raffleNumbers[raffleNumberIndex] = i;\n          raffleNumberIndex += 1;\n\n          entries[i].playerAddress = payable(msg.sender);\n        }\n\n        entryCount += numEntries; // quick fix...\n        // and whats even funnier, is that this was the inital method\n        // and for some odd reason i implemented it in the for loop afterward\n\n        jackpotTotal = address(this).balance * 99 / 100;\n        // 99% of total balance is the prize\n        // remaining balance goes to owner... mostly for testing, can be omitted..\n        // seems like its easy to create a lottery without commision so user\n        // may be less inclined to use a lottery with owner commision\n        // unless the commission goes to a good cause or something like a charitbale donation\n        // commission for owner if the owner is trusted by the people entering lottery...\n    \n        // events for user confirmation\n        emit playerEntered(msg.sender, numEntries, raffleNumbers);\n\n        // For front end updates\n        emit runningEntryCount(entryCount);\n        emit runningJackpotTotal(jackpotTotal);\n    }\n\n    function declareWinner(uint randNonce) public isOwner {\n        // Mark the lottery inactive so no more entries\n        isLotteryLive = false;\n        hasLotteryEnded = true;\n\n        // For final front end lottery variable display updates\n        emit lotteryActive(isLotteryLive); // to show on frontend lottery has finished\n        emit runningEntryCount(entryCount);\n        emit runningJackpotTotal(jackpotTotal);\n\n        // for personal testing see if any discrepency\n        // uint discrepency = jackpotTotal - address(this).balance;\n        // emit discrepencyTest(discrepency);\n\n        // between 1 and entryCount\n        uint randomEntryNumber = generateRandomNumber(randNonce);\n    \n        entries[randomEntryNumber].playerAddress.call{value: jackpotTotal}(\"\");\n        \n        winnerAddress = entries[randomEntryNumber].playerAddress;\n        winnerEntryNumber = randomEntryNumber;\n        winnerPrize = jackpotTotal;\n    \n        // winner declartion for updating front end with winner details...\n        emit winnerDeclared(randomEntryNumber, entries[randomEntryNumber].playerAddress, jackpotTotal);\n    }\n\n    function selfDestruct() public isOwner {\n        require(!isLotteryLive);\n\n        // Self destruct contract after winner has been sent prize, and remaining balance goes to owner\n        // TIMER TO DESCRUCT??\n        selfdestruct(payable(owner));\n    }\n\n    // when starting this project i didnt think about the nature of randomising numbers on the blockchain\n    // now i see there are some limiting factors that make it hard to fairly randomise on the blockchain\n    // Anyone who figures out how your contract produces randomness can anticipate its results and use this information to exploit your app\n    // like malicious actors could predict the parameters used to randomise and gain an unfair advantage possibly\n    // and randomising using complex algorithms takes to much computational power so is not viable on the network\n    // Unless a portion of the jackpot goes to gas fees to do just that!\n    \n\n    // generate random entry number between 1 -> entryCount\n    // -1 so that the entry number 0 can win the prize if minimum random number is 1...\n    // owner Declares winner and can choose a random nonce for generator function so cannot be predicted by anyone\n    // although owner could be malicious... and buy tickets and specify a nonce for their own gain\n    // Owner priveledges could be set to multiple accounts aswell so that the 'msg.sender' input\n    // in the generator function cannot be predicted...\n    // since owner initiates the declareWinner function the block timestamp cannot be predicted i think?\n    // all of this relies on the owner being trustworthy and transparent...\n    function generateRandomNumber(uint randNonce) private view returns(uint) {\n        // found this new looking method for generating a somewhat random numero\n        // still uses block timestamp which could be a method of attack for a malicious miner\n        randNonce++; \n        return uint(keccak256(abi.encodePacked(block.timestamp, msg.sender, randNonce))) % entryCount;\n    }\n\n    // testing random number generator function \n    function generateRandomNumberTest(uint randNonce, uint entryCountTest) public isOwner {\n        // found this new looking method for generating a somewhat random numero\n        // still uses block timestamp which could be a method of attack for a malicious miner\n        //EVENT EMIT FUNCTION TO SEE RETURN VALUE???\n        randNonce++; \n        uint randomNum = uint(keccak256(abi.encodePacked(block.timestamp, msg.sender, randNonce))) % entryCountTest;\n        emit randomNumGen(randomNum);\n    }\n}",
  "sourcePath": "/Users/thomasbutterfield/git/blockchain-developer-bootcamp-final-project/truffle/contracts/raffleLottery.sol",
  "compiler": {
    "name": "solc",
    "version": "0.8.10+commit.fc410830.Emscripten.clang"
  },
  "schemaVersion": "3.4.3",
  "updatedAt": "2021-12-03T09:33:35.512Z",
  "networkType": "ethereum",
  "devdoc": {
    "kind": "dev",
    "methods": {},
    "version": 1
  },
  "userdoc": {
    "kind": "user",
    "methods": {},
    "version": 1
  }
}